S01700004763634170706C69636174696F6E322E737265635A
S11300000C944F000C94EF000C944D010C946C0074
S11300100C946C000C946C000C946C000C946C00AC
S11300200C946C000C946C000C946C000C946C009C
S11300300C946C000C946C000C946C000C946C008C
S11300400C94C3000C946C000C94A3010C946C00ED
S11300500C946C000C946C000C946C000C946C006C
S11300600C946C000C946C00E701DF01E301D701F0
S1130070EB01EF01F301FA01FA01FA01FA01FA01C5
S1130080FA01FA01FA01FA01F701DB010F03F702A1
S1130090FA02FD0200030303060309030C031124FF
S11300A01FBECFEFD8E0DEBFCDBF11E0A0E0B1E0CE
S11300B0E4E0F2E102C005900D92AE33B107D9F746
S11300C021E0AEE3B1E001C01D92AF37B207E1F722
S11300D00E9402040C9400090C94000082EF8AB977
S11300E01BB887E384B988EC85B983E087B98CEFC2
S11300F088B984B5836A84BD85B5826085BDEEE622
S1130100F0E0808181608083E0E8F0E080818268B3
S11301108083E1E8F0E08081896180838FE19EE45F
S113012090938700809386008AE397E090938900F8
S113013080938800E0EBF0E0808183608083E1EBD2
S1130140F0E08081846080838CE090E09093C5002F
S11301508093C40082E08093C00088E98093C1004A
S113016086E08093C2008DB383608DBBE9E6F0E046
S113017080818560808380818D7F80838081877F7B
S11301808083789408951F920F920FB60F921124D2
S11301908F939F93809143018F5F8093430180915C
S11301A00A0190910B01019790930B0180930A012E
S11301B080910A0190910B01892B51F495B181E052
S11301C0892785B984EF90E090930B0180930A010D
S11301D09F918F910F900FBE0F901F9018951F92B3
S11301E00F920FB60F9211242F933F934F935F9367
S11301F06F937F938F939F93AF93BF9380914701A6
S1130200813049F486B5809341011092430182E024
S11302108093470133C086B58093400180914301A8
S1130220509141014091400190E00197982F882717
S11302302FEF30E0251B3109820F931F840F911D8E
S1130240880F991F880F991F880F991F9093540145
S1130250809353012091530130915401AFE9B6E4E6
S11302600E948D05929582958F7089279F708927AA
S1130270909352018093510110924701BF91AF9125
S11302809F918F917F916F915F914F913F912F91AA
S11302900F900FBE0F901F9018951F920F920FB6DC
S11302A00F9211248F939F93EF93FF9380914901B1
S11302B0813081F41092B100E2EBF0E0808190E0B3
S11302C090936A018093690181E0809346011082D2
S11302D0109249018091490181110AC01092B20023
S11302E0E1EBF0E080818460808381E080934901C8
S11302F0FF91EF919F918F910F900FBE0F901F90E0
S11303001895E0ECF0E0908195FFFDCF8093C60056
S11303100895CF93DF93EC012881222389F030E004
S1130320E0ECF0E046EC50E0908195FFFDCFDA017F
S11303302C933F5FDE01A30FB11D2C912111F4CF4B
S1130340DF91CF9108951F920F920FB60F9211244F
S11303500F931F932F933F934F935F936F937F93C9
S11303608F939F93AF93BF93CF93DF93EF93FF93B9
S11303708091C60080930701813419F4109208011A
S113038093C0823421F491E0909308018DC0909140
S1130390080191112FC0482F50E0FA01E354F109EC
S11303A0E231F10538F5EC5CFF4F0C94870581E0F0
S11303B080934C0167C082E080934C0163C083E06A
S11303C080934C015FC084E080934C015BC085E066
S11303D080934C0157C086E080934C0153C087E062
S11303E080934C014FC088E080934C014BC0109225
S11303F04C0148C0873571F481E080934A01E0E004
S1130400F1E080E38083818380E28283838310929E
S1130410480138C08935B1F510924A0180E38093D0
S1130420000180E091E00E94B00580934B0180912F
S11304304B01811103C082E50E94810180914B012F
S1130440882349F080914B0188232CF080914B0143
S11304508093060103C08FE78093060180914801D1
S1130460882381F001E011E0C1E0D0E0F80181913E
S11304708F010E94810121968091480190E08C17A0
S11304809D07A4F780914A01813089F4E0914801E5
S1130490F0E0E050FF4F8091070180838091480194
S11304A08F5F8093480103C090910801A3CFFF910F
S11304B0EF91DF91CF91BF91AF919F918F917F91F8
S11304C06F915F914F913F912F911F910F910F90D9
S11304D00FBE0F901F90189585B18B7C85B95F98DE
S11304E085B1846185B98091060187BD809106013B
S11304F088BD089585B18B7C85B95F982D9A5F9AE4
S11305008091060187BD8091060188BD089585B15B
S11305108B7C85B95F985F9A2A9A909109018091A2
S11305200601890F87BD8091060188BD089585B1B4
S11305308B7C85B95F9885B1806385B990910901F9
S113054080910601890F87BD8091060188BD0895B9
S113055085B18B7C85B95F9885B1846185B98091BB
S11305600601895F87BD8091060188BD089585B124
S11305708B7C85B95F9885B1846185B980910601CA
S113058087BD80910601895F88BD089585B18B7C04
S113059085B95F982D9A5F9A90910901809106011F
S11305A0890F895F87BD8091060188BD089585B153
S11305B08B7C85B95F982D9A5F9A8091060187BDDF
S11305C080910601895F88BD089585B1837C85B9D2
S11305D017BC18BC0895E0914C018E2F90E089302F
S11305E09105F8F4FC01EA5BFF4F0C9487050E9427
S11305F06C0208950E947A0208950E948702089569
S11306000E94970208950E94A80208950E94B702CA
S113061008950E94C60208950E94D70208950E9478
S1130620E50208955C9A10924201109242011092E0
S11306304201109254011092530110924001109201
S113064041015C9881E080934701809147018111C9
S1130650FCCF8091510190915201892B39F0809106
S11306605101909152018139914030F080E991E03B
S113067090935201809351010895409A109242013F
S113068010924201109242011092420110924201D2
S1130690109242014098809146018823E1F3109220
S11306A04601109249012091690130916A010024A8
S11306B0369527950794369527950794322F202D44
S11306C0AFE9B6E40E948D05929582958F708927D3
S11306D09F7089279093500180934F01089541980A
S11306E0109242011092B200419A1092420110926B
S11306F04201109242011092420110924201109262
S113070042014198329BFECFE1EBF0E080818460AE
S113071080833299FECF1092B1008091B20026E41A
S1130720829FC00111246AE370E00E9473056E5237
S1130730710970934E0160934D0180914D01909128
S11307404E01892B31F481E090E090934E01809327
S11307504D011092B200089580913E01811116C09E
S11307600E943D0380914F01909150014E9730F4C7
S11307700E94E50281E080933E0108C00E947A0253
S113078083E294EF0197F1F700C0000080913E01ED
S1130790811116C00E946F0380914D0190914E010A
S11307A04E9730F40E94E50281E080933E01089563
S11307B00E947A0283E294EF0197F1F700C00000EF
S11307C0089580915101909152014AE050E065E50D
S11307D071E00E94CE0585E591E09F938F932CE014
S11307E031E03F932F939F938F930E94060685E5F4
S11307F091E00E9489010F900F900F900F900F903D
S11308000F900895CF93DF93CDB7DEB764970FB6FB
S1130810F894DEBF0FBECDBF0E946E0083E1E2E11B
S1130820F1E0A5E5B1E001900D928A95E1F785E547
S113083091E00E9489018AE397E090938900809374
S113084088000F2EFAE3EF2EF7E0FF2EF02D812C17
S1130850912C512C08E810E00F2EFAE3CF2EF7E08C
S1130860DF2EF02D9E012F5F3F4F59014424439406
S11308700F2EFBE22F2EF1E03F2EF02D0F2EF5E28E
S11308806F2EF1E07F2EF02D80910801813009F068
S11308901DC1809147018111F7C0809145018111EB
S11308A0F3C080913F01811165C0539434E0531229
S11308B028C0F801808191818433984021F4F801A3
S11308C0D182C08206C1F801808191818A33974028
S11308D0A1F480914401811108C04092440120E4B4
S11308E036E0F80131832083F4C01092440124E3FC
S11308F038E0F80131832083ECC0F801D182C08252
S1130900E8C00E946C020E9412030E94E1038091DD
S1130910510190915201029708F4B6CF8091510190
S113092090915201C39708F0AFCF0E94E50285E58C
S113093091E09F938F937F926F92BF92AF920E94A8
S11309400606C5010E94890140923F0110923E01B2
S11309500E94AC030E94AC0310923E01F801E080B7
S1130960F1800E94E5020F900F900F900F900F906E
S11309700F908ACF80913F018130A9F520EF3AE0B2
S1130980F801318320833FEB44ED81E03150404056
S11309908040E1F700C000000E94120380915101E1
S11309A0909152014AE050E065E571E00E94CE0565
S11309B085E591E09F938F933F922F92BF92AF92E0
S11309C00E940606C5010E94890180905101909001
S11309D0520192E090933F010F900F900F900F906F
S11309E00F900F9051CF80913F01823009F04CCF8E
S11309F020E233E0F801318320833FEB44ED81E0D2
S1130A00315040408040E1F700C000000E941203D2
S1130A1080915101909152014AE050E065E571E006
S1130A200E94CE0585E591E09F938F93E4E3F1E086
S1130A30FF93EF93BF92AF920E940606C5010E94F6
S1130A408901809151019091520140924501109287
S1130A503F01F801F182E082FFE728E331E0F15041
S1130A6020403040E1F700C000000F900F900F903D
S1130A700F900F900F90881599051CF00E94870223
S1130A8003CF0E94970200CF809147018111FCCED1
S1130A9080914501813009F0F7CE4AE3E41647E03E
S1130AA0F40629F0F801D182C0827601EDCE0E94CD
S1130AB0120380915101909152018837910508F4F5
S1130AC0E3CE109245010E94E502DECE0E94EB02C5
S1130AD0DBCE0E946C0283E294EF0197F1F700C031
S1130AE00000512C10CF97FB072E16F4009407D06A
S1130AF077FD09D00E949C0507FC05D03EF4909533
S1130B0081959F4F0895709561957F4F0895EE0FDD
S1130B10FF1F0590F491E02D0994A29FB001B39FAB
S1130B20C001A39F700D811D1124911DB29F700DF2
S1130B30811D1124911D0895AA1BBB1B51E107C0FF
S1130B40AA1FBB1FA617B70710F0A61BB70B881F59
S1130B50991F5A95A9F780959095BC01CD010895E8
S1130B60FC0188279927E89421912032E9F3293060
S1130B7010F02E30C8F32B3241F02D3239F4689442
S1130B8004C00E94E405820F911D219120532A3054
S1130B90C0F31EF4909581959F4F089545325105F9
S1130BA020F4423010F00C94D905FB011082CB01E3
S1130BB00895BB274A3031F4992322F4BDE290957D
S1130BC081959F4F0C94ED057AE0979F902D879F18
S1130BD0802D910D11240895BB27FB015527AA27C9
S1130BE0880F991FAA1FA41710F0A41B83955051B6
S1130BF0B9F7A05DAA3308F0A95DA193009779F72E
S1130C00B111B1931192CB010C941F08AEE0B0E086
S1130C10ECE0F6E00C94D7080D891E8986E08C83FD
S1130C201A8309838FEF9FE79E838D83AE01475E0E
S1130C305F4F6F89788DCE0101960E942806EF815F
S1130C40F885E00FF11F10822E96E4E00C94F3086F
S1130C50ABE0B0E0EEE2F6E00C94C9086C017B0175
S1130C608A01FC0117821682838181FFCCC1CE01E7
S1130C7001963C01F6019381F70193FD859193FF61
S1130C8081917F01882309F4BAC1853239F493FD37
S1130C90859193FF81917F01853229F4B60190E01B
S1130CA00E942F08E7CF912C212C312CFFE1F31562
S1130CB0D8F08B3279F038F4803279F08332A1F4B1
S1130CC0232D20611DC08D3261F0803369F4232D02
S1130CD0216016C0832D8260382EE32DE4603E2E01
S1130CE02AC0F32DF8601DC037FC2DC020ED280F5D
S1130CF02A3040F08E32B9F436FC81C1232D2064B1
S1130D00322E19C036FE06C08AE0989E200D1124AA
S1130D10922E11C0EAE02E9E200D1124222EF32DD6
S1130D20F0623F2E08C08C3621F4832D8068382E63
S1130D3002C0883641F4F70193FD859193FF8191B8
S1130D407F018111B3CF982F9F7D9554933028F460
S1130D500C5F1F4F9FE399830DC0833631F08337B7
S1130D6071F0833509F059C021C0F801808189836D
S1130D700E5F1F4F88248394912C530113C02801C4
S1130D80F2E04F0E511CF801A080B18036FE03C082
S1130D90692D70E002C06FEF7FEFC5010E94140857
S1130DA04C018201F32DFF773F2E16C0280122E06B
S1130DB0420E511CF801A080B18036FE03C0692D9B
S1130DC070E002C06FEF7FEFC5010E9409084C017B
S1130DD0F32DF0683F2E820133FC1BC0822D90E07E
S1130DE088169906B0F4B60180E290E00E942F08BC
S1130DF02A94F4CFF50137FC859137FE81915F0188
S1130E00B60190E00E942F0821102A9421E0821A52
S1130E1091088114910471F7E8C0843611F0893681
S1130E2041F5F80137FE07C06081718182819381A9
S1130E300C5F1F4F08C060817181072E000C880B66
S1130E40990B0E5F1F4FF32DFF763F2E97FF09C0BE
S1130E5090958095709561957F4F8F4F9F4FF06867
S1130E603F2E2AE030E0A3010E946B08882E8618EA
S1130E7045C0853731F4232D2F7EB22E2AE030E091
S1130E8025C0932D997FB92E8F36C1F018F488357B
S1130E9079F0B5C0803719F0883721F0B0C0E92F58
S1130EA0E061BE2EB4FE0DC0FB2DF460BF2E09C060
S1130EB034FE0AC0292F2660B22E06C028E030E096
S1130EC005C020E130E002C020E132E0F801B7FEC5
S1130ED007C060817181828193810C5F1F4F06C0BE
S1130EE06081718180E090E00E5F1F4FA3010E943A
S1130EF06B08882E8618FB2DFF773F2E36FE0DC01B
S1130F00232D2E7FA22E891458F434FE0BC032FCFC
S1130F1009C0832D8E7EA82E05C0B82CA32C03C037
S1130F20B82C01C0B92CA4FE0FC0FE01E80DF11DC0
S1130F308081803321F49A2D997EA92E09C0A2FEC6
S1130F4006C0B394B39404C08A2D867809F0B39490
S1130F50A3FC11C0A0FE06C0B21488F4280C922C85
S1130F609B180EC0B21460F4B60180E290E00E94B7
S1130F702F08B394F7CFB21418F42B1802C0982C8E
S1130F80212CA4FE10C0B60180E390E00E942F083B
S1130F90A2FE17C0A1FC03C088E790E002C088E568
S1130FA090E0B6010CC08A2D867859F0A1FE02C0EB
S1130FB08BE201C080E2A7FC8DE2B60190E00E94C2
S1130FC02F08891438F4B60180E390E00E942F08BA
S1130FD09A94F7CF8A94F301E80DF11D8081B6014C
S1130FE090E00E942F088110F5CF222009F442CE10
S1130FF0B60180E290E00E942F082A94F6CFF60111
S11310008681978102C08FEF9FEF2B96E2E10C94CB
S1131010E508FC010590615070400110D8F78095F7
S113102090958E0F9F1F0895FC01615070400190B0
S11310300110D8F7809590958E0F9F1F0895DC01BD
S1131040FC01672F71917723E1F7329704C07C91FB
S11310506D9370836291AE17BF07C8F308950F9321
S11310601F93CF93DF93FB01238121FD03C08FEFF7
S11310709FEF2CC022FF16C0468157812481358101
S11310804217530744F4A081B1819D012F5F3F4F64
S1131090318320838C93268137812F5F3F4F3783A1
S11310A0268314C08B01EC01FB010084F185E02D43
S11310B00995892BE1F6D80116968D919C91179785
S11310C0019617969C938E931697CE01DF91CF913C
S11310D01F910F910895FA01AA27283051F1203168
S11310E081F1E8946F936E7F6E5F7F4F8F4F9F4FB8
S11310F0AF4FB1E03ED0B4E03CD0670F781F891FFA
S11311009A1FA11D680F791F8A1F911DA11D6A0FC7
S1131110711D811D911DA11D20D009F468943F917A
S11311202AE0269F11243019305D3193DEF6CF0179
S11311300895462F4770405D4193B3E00FD0C9F73F
S1131140F6CF462F4F70405D4A3318F0495D31FDAC
S11311504052419302D0A9F7EACFB4E0A6959795FF
S1131160879577956795BA95C9F7009761057105D5
S113117008959B01AC010A2E06945795479537951F
S11311802795BA95C9F7620F731F841F951FA01D79
S113119008952F923F924F925F926F927F928F9217
S11311A09F92AF92BF92CF92DF92EF92FF920F93F2
S11311B01F93CF93DF93CDB7DEB7CA1BDB0B0FB6FC
S11311C0F894DEBF0FBECDBF09942A8839884888B9
S11311D05F846E847D848C849B84AA84B984C8844F
S11311E0DF80EE80FD800C811B81AA81B981CE0F46
S11311F0D11D0FB6F894DEBF0FBECDBFED0108952B
S1071200F894FFCF8C
S113120430303000000033200102F4002573202C18
S113121420000A4147562052454144592E2E2E2E71
S11312242E2E200A0053544F500A004553513D2595
S1111234732C20004449523D25732C200000E9
S9030000FC
